{
  "contractName": "Probcontract",
  "abi": [
    {
      "constant": true,
      "inputs": [
        {
          "name": "",
          "type": "uint256"
        },
        {
          "name": "",
          "type": "uint256"
        }
      ],
      "name": "answers",
      "outputs": [
        {
          "name": "answer",
          "type": "string"
        },
        {
          "name": "answerer",
          "type": "address"
        },
        {
          "name": "answerId",
          "type": "uint256"
        }
      ],
      "payable": false,
      "stateMutability": "view",
      "type": "function"
    },
    {
      "constant": true,
      "inputs": [
        {
          "name": "",
          "type": "uint256"
        }
      ],
      "name": "questions",
      "outputs": [
        {
          "name": "question",
          "type": "string"
        },
        {
          "name": "asker",
          "type": "address"
        },
        {
          "name": "value",
          "type": "uint256"
        },
        {
          "name": "isEnd",
          "type": "bool"
        },
        {
          "name": "questionId",
          "type": "uint256"
        }
      ],
      "payable": false,
      "stateMutability": "view",
      "type": "function"
    },
    {
      "constant": true,
      "inputs": [
        {
          "name": "",
          "type": "address"
        }
      ],
      "name": "users",
      "outputs": [
        {
          "name": "username",
          "type": "string"
        },
        {
          "name": "rank",
          "type": "uint256"
        }
      ],
      "payable": false,
      "stateMutability": "view",
      "type": "function"
    },
    {
      "constant": true,
      "inputs": [
        {
          "name": "",
          "type": "uint256"
        },
        {
          "name": "",
          "type": "uint256"
        }
      ],
      "name": "comments",
      "outputs": [
        {
          "name": "comment",
          "type": "string"
        },
        {
          "name": "commenter",
          "type": "address"
        }
      ],
      "payable": false,
      "stateMutability": "view",
      "type": "function"
    },
    {
      "anonymous": false,
      "inputs": [
        {
          "indexed": false,
          "name": "quesid",
          "type": "uint256"
        },
        {
          "indexed": false,
          "name": "ansid",
          "type": "uint256"
        }
      ],
      "name": "QuestionEnd",
      "type": "event"
    },
    {
      "anonymous": false,
      "inputs": [
        {
          "indexed": false,
          "name": "quesid",
          "type": "uint256"
        }
      ],
      "name": "AddAnswer",
      "type": "event"
    },
    {
      "anonymous": false,
      "inputs": [
        {
          "indexed": false,
          "name": "quesid",
          "type": "uint256"
        },
        {
          "indexed": false,
          "name": "ansid",
          "type": "uint256"
        }
      ],
      "name": "AddComment",
      "type": "event"
    },
    {
      "constant": true,
      "inputs": [
        {
          "name": "addr",
          "type": "address"
        }
      ],
      "name": "getRank",
      "outputs": [
        {
          "name": "",
          "type": "uint256"
        }
      ],
      "payable": false,
      "stateMutability": "view",
      "type": "function"
    },
    {
      "constant": false,
      "inputs": [
        {
          "name": "_username",
          "type": "string"
        }
      ],
      "name": "setUsername",
      "outputs": [],
      "payable": false,
      "stateMutability": "nonpayable",
      "type": "function"
    },
    {
      "constant": true,
      "inputs": [
        {
          "name": "addr",
          "type": "address"
        }
      ],
      "name": "getUsername",
      "outputs": [
        {
          "name": "",
          "type": "string"
        }
      ],
      "payable": false,
      "stateMutability": "view",
      "type": "function"
    },
    {
      "constant": false,
      "inputs": [
        {
          "name": "_question",
          "type": "string"
        }
      ],
      "name": "putQuestion",
      "outputs": [
        {
          "name": "",
          "type": "uint256"
        }
      ],
      "payable": true,
      "stateMutability": "payable",
      "type": "function"
    },
    {
      "constant": false,
      "inputs": [
        {
          "name": "_id",
          "type": "uint256"
        },
        {
          "name": "_answer",
          "type": "string"
        }
      ],
      "name": "answerQuestion",
      "outputs": [
        {
          "name": "",
          "type": "uint256"
        }
      ],
      "payable": false,
      "stateMutability": "nonpayable",
      "type": "function"
    },
    {
      "constant": false,
      "inputs": [
        {
          "name": "_quesid",
          "type": "uint256"
        },
        {
          "name": "_ansid",
          "type": "uint256"
        },
        {
          "name": "_comment",
          "type": "string"
        }
      ],
      "name": "addComment",
      "outputs": [
        {
          "name": "",
          "type": "uint256"
        }
      ],
      "payable": false,
      "stateMutability": "nonpayable",
      "type": "function"
    },
    {
      "constant": true,
      "inputs": [],
      "name": "getQuestionLength",
      "outputs": [
        {
          "name": "",
          "type": "uint256"
        }
      ],
      "payable": false,
      "stateMutability": "view",
      "type": "function"
    },
    {
      "constant": true,
      "inputs": [
        {
          "name": "_id",
          "type": "uint256"
        }
      ],
      "name": "getQuestion",
      "outputs": [
        {
          "name": "",
          "type": "string"
        },
        {
          "name": "",
          "type": "address"
        },
        {
          "name": "",
          "type": "uint256"
        },
        {
          "name": "",
          "type": "uint256"
        },
        {
          "name": "",
          "type": "bool"
        }
      ],
      "payable": false,
      "stateMutability": "view",
      "type": "function"
    },
    {
      "constant": true,
      "inputs": [
        {
          "name": "_quesid",
          "type": "uint256"
        },
        {
          "name": "_ansid",
          "type": "uint256"
        }
      ],
      "name": "getAnswer",
      "outputs": [
        {
          "name": "",
          "type": "string"
        },
        {
          "name": "",
          "type": "address"
        },
        {
          "name": "",
          "type": "uint256"
        }
      ],
      "payable": false,
      "stateMutability": "view",
      "type": "function"
    },
    {
      "constant": true,
      "inputs": [
        {
          "name": "_quesid",
          "type": "uint256"
        },
        {
          "name": "_ansid",
          "type": "uint256"
        },
        {
          "name": "_commid",
          "type": "uint256"
        }
      ],
      "name": "getComment",
      "outputs": [
        {
          "name": "",
          "type": "string"
        },
        {
          "name": "",
          "type": "address"
        }
      ],
      "payable": false,
      "stateMutability": "view",
      "type": "function"
    },
    {
      "constant": false,
      "inputs": [
        {
          "name": "_quesid",
          "type": "uint256"
        },
        {
          "name": "_ansid",
          "type": "uint256"
        }
      ],
      "name": "questionEnd",
      "outputs": [],
      "payable": false,
      "stateMutability": "nonpayable",
      "type": "function"
    }
  ],
  "bytecode": "0x608060405234801561001057600080fd5b50612a52806100206000396000f3006080604052600436106100db576000357c0100000000000000000000000000000000000000000000000000000000900463ffffffff16806319e874b1146100e05780632401519c1461010b57806331b1b978146101f5578063447e52a0146102e7578063548c0ef41461036e5780637f4b749f146103c55780638daa946314610435578063989daf5014610522578063a22c1bc914610559578063a87430ba14610643578063ab122ef514610706578063ce43c03214610797578063db88176f14610853578063ed59313a14610945578063fc6c776f146109ae575b600080fd5b3480156100ec57600080fd5b506100f5610a91565b6040518082815260200191505060405180910390f35b34801561011757600080fd5b506101406004803603810190808035906020019092919080359060200190929190505050610a9e565b60405180806020018473ffffffffffffffffffffffffffffffffffffffff1673ffffffffffffffffffffffffffffffffffffffff168152602001838152602001828103825285818151815260200191508051906020019080838360005b838110156101b857808201518184015260208101905061019d565b50505050905090810190601f1680156101e55780820380516001836020036101000a031916815260200191505b5094505050505060405180910390f35b34801561020157600080fd5b5061022060048036038101908080359060200190929190505050610b9c565b60405180806020018673ffffffffffffffffffffffffffffffffffffffff1673ffffffffffffffffffffffffffffffffffffffff16815260200185815260200184151515158152602001838152602001828103825287818151815260200191508051906020019080838360005b838110156102a857808201518184015260208101905061028d565b50505050905090810190601f1680156102d55780820380516001836020036101000a031916815260200191505b50965050505050505060405180910390f35b3480156102f357600080fd5b5061035860048036038101908080359060200190929190803590602001908201803590602001908080601f0160208091040260200160405190810160405280939291908181526020018383808284378201915050505050509192919290505050610ca6565b6040518082815260200191505060405180910390f35b34801561037a57600080fd5b506103af600480360381019080803573ffffffffffffffffffffffffffffffffffffffff169060200190929190505050610e75565b6040518082815260200191505060405180910390f35b61041f600480360381019080803590602001908201803590602001908080601f0160208091040260200160405190810160405280939291908181526020018383808284378201915050505050509192919290505050610ec0565b6040518082815260200191505060405180910390f35b34801561044157600080fd5b50610474600480360381019080803590602001909291908035906020019092919080359060200190929190505050610fdf565b60405180806020018373ffffffffffffffffffffffffffffffffffffffff1673ffffffffffffffffffffffffffffffffffffffff168152602001828103825284818151815260200191508051906020019080838360005b838110156104e65780820151818401526020810190506104cb565b50505050905090810190601f1680156105135780820380516001836020036101000a031916815260200191505b50935050505060405180910390f35b34801561052e57600080fd5b506105576004803603810190808035906020019092919080359060200190929190505050611580565b005b34801561056557600080fd5b5061058e6004803603810190808035906020019092919080359060200190929190505050611a71565b60405180806020018473ffffffffffffffffffffffffffffffffffffffff1673ffffffffffffffffffffffffffffffffffffffff168152602001838152602001828103825285818151815260200191508051906020019080838360005b838110156106065780820151818401526020810190506105eb565b50505050905090810190601f1680156106335780820380516001836020036101000a031916815260200191505b5094505050505060405180910390f35b34801561064f57600080fd5b50610684600480360381019080803573ffffffffffffffffffffffffffffffffffffffff169060200190929190505050611e5e565b6040518080602001838152602001828103825284818151815260200191508051906020019080838360005b838110156106ca5780820151818401526020810190506106af565b50505050905090810190601f1680156106f75780820380516001836020036101000a031916815260200191505b50935050505060405180910390f35b34801561071257600080fd5b506107816004803603810190808035906020019092919080359060200190929190803590602001908201803590602001908080601f0160208091040260200160405190810160405280939291908181526020018383808284378201915050505050509192919290505050611f1a565b6040518082815260200191505060405180910390f35b3480156107a357600080fd5b506107d8600480360381019080803573ffffffffffffffffffffffffffffffffffffffff1690602001909291905050506123f9565b6040518080602001828103825283818151815260200191508051906020019080838360005b838110156108185780820151818401526020810190506107fd565b50505050905090810190601f1680156108455780820380516001836020036101000a031916815260200191505b509250505060405180910390f35b34801561085f57600080fd5b5061087e600480360381019080803590602001909291905050506124dc565b60405180806020018673ffffffffffffffffffffffffffffffffffffffff1673ffffffffffffffffffffffffffffffffffffffff16815260200185815260200184815260200183151515158152602001828103825287818151815260200191508051906020019080838360005b838110156109065780820151818401526020810190506108eb565b50505050905090810190601f1680156109335780820380516001836020036101000a031916815260200191505b50965050505050505060405180910390f35b34801561095157600080fd5b506109ac600480360381019080803590602001908201803590602001908080601f0160208091040260200160405190810160405280939291908181526020018383808284378201915050505050509192919290505050612700565b005b3480156109ba57600080fd5b506109e36004803603810190808035906020019092919080359060200190929190505050612759565b60405180806020018373ffffffffffffffffffffffffffffffffffffffff1673ffffffffffffffffffffffffffffffffffffffff168152602001828103825284818151815260200191508051906020019080838360005b83811015610a55578082015181840152602081019050610a3a565b50505050905090810190601f168015610a825780820380516001836020036101000a031916815260200191505b50935050505060405180910390f35b6000600180549050905090565b600260205281600052604060002081815481101515610ab957fe5b906000526020600020906003020160009150915050806000018054600181600116156101000203166002900480601f016020809104026020016040519081016040528092919081815260200182805460018160011615610100020316600290048015610b665780601f10610b3b57610100808354040283529160200191610b66565b820191906000526020600020905b815481529060010190602001808311610b4957829003601f168201915b5050505050908060010160009054906101000a900473ffffffffffffffffffffffffffffffffffffffff16908060020154905083565b600181815481101515610bab57fe5b9060005260206000209060050201600091509050806000018054600181600116156101000203166002900480601f016020809104026020016040519081016040528092919081815260200182805460018160011615610100020316600290048015610c575780601f10610c2c57610100808354040283529160200191610c57565b820191906000526020600020905b815481529060010190602001808311610c3a57829003601f168201915b5050505050908060010160009054906101000a900473ffffffffffffffffffffffffffffffffffffffff16908060020154908060030160009054906101000a900460ff16908060040154905085565b60008060018054905084101515610d25576040517f08c379a000000000000000000000000000000000000000000000000000000000815260040180806020018281038252601a8152602001807fe997aee9a2986964e8b685e8bf87e695b0e7bb84e88c83e59bb400000000000081525060200191505060405180910390fd5b60026000600186815481101515610d3857fe5b90600052602060002090600502016004015481526020019081526020016000209050806060604051908101604052808581526020013373ffffffffffffffffffffffffffffffffffffffff1681526020018380549050815250908060018154018082558091505090600182039060005260206000209060030201600090919290919091506000820151816000019080519060200190610dd8929190612851565b5060208201518160010160006101000a81548173ffffffffffffffffffffffffffffffffffffffff021916908373ffffffffffffffffffffffffffffffffffffffff160217905550604082015181600201555050507f06992dd66d130f78437514ecab6d568d03aa84e48abd2cac6ff01dba05798318846040518082815260200191505060405180910390a1600181805490500391505092915050565b60008060008373ffffffffffffffffffffffffffffffffffffffff1673ffffffffffffffffffffffffffffffffffffffff168152602001908152602001600020600101549050919050565b6000600160a0604051908101604052808481526020013373ffffffffffffffffffffffffffffffffffffffff168152602001348152602001600015158152602001600180549050815250908060018154018082558091505090600182039060005260206000209060050201600090919290919091506000820151816000019080519060200190610f51929190612851565b5060208201518160010160006101000a81548173ffffffffffffffffffffffffffffffffffffffff021916908373ffffffffffffffffffffffffffffffffffffffff1602179055506040820151816002015560608201518160030160006101000a81548160ff0219169083151502179055506080820151816004015550505060018080549050039050919050565b60606000610feb6128d1565b610ff3612919565b610ffb612951565b60018054905088101515611077576040517f08c379a000000000000000000000000000000000000000000000000000000000815260040180806020018281038252600f8152602001807fe997aee9a298e4b88de5ad98e59ca8000000000000000000000000000000000081525060200191505060405180910390fd5b60018881548110151561108657fe5b906000526020600020906005020160a06040519081016040529081600082018054600181600116156101000203166002900480601f0160208091040260200160405190810160405280929190818152602001828054600181600116156101000203166002900480156111395780601f1061110e57610100808354040283529160200191611139565b820191906000526020600020905b81548152906001019060200180831161111c57829003601f168201915b505050505081526020016001820160009054906101000a900473ffffffffffffffffffffffffffffffffffffffff1673ffffffffffffffffffffffffffffffffffffffff1673ffffffffffffffffffffffffffffffffffffffff168152602001600282015481526020016003820160009054906101000a900460ff1615151515815260200160048201548152505092506002600084608001518152602001908152602001600020805490508710151561125a576040517f08c379a000000000000000000000000000000000000000000000000000000000815260040180806020018281038252600f8152602001807fe59b9ee7ad94e4b88de5ad98e59ca8000000000000000000000000000000000081525060200191505060405180910390fd5b60026000846080015181526020019081526020016000208781548110151561127e57fe5b906000526020600020906003020160606040519081016040529081600082018054600181600116156101000203166002900480601f0160208091040260200160405190810160405280929190818152602001828054600181600116156101000203166002900480156113315780601f1061130657610100808354040283529160200191611331565b820191906000526020600020905b81548152906001019060200180831161131457829003601f168201915b505050505081526020016001820160009054906101000a900473ffffffffffffffffffffffffffffffffffffffff1673ffffffffffffffffffffffffffffffffffffffff1673ffffffffffffffffffffffffffffffffffffffff16815260200160028201548152505091506003600083604001518152602001908152602001600020805490508610151561142d576040517f08c379a000000000000000000000000000000000000000000000000000000000815260040180806020018281038252600f8152602001807fe8af84e8aebae4b88de5ad98e59ca8000000000000000000000000000000000081525060200191505060405180910390fd5b60036000836040015181526020019081526020016000208681548110151561145157fe5b9060005260206000209060020201604080519081016040529081600082018054600181600116156101000203166002900480601f0160208091040260200160405190810160405280929190818152602001828054600181600116156101000203166002900480156115035780601f106114d857610100808354040283529160200191611503565b820191906000526020600020905b8154815290600101906020018083116114e657829003601f168201915b505050505081526020016001820160009054906101000a900473ffffffffffffffffffffffffffffffffffffffff1673ffffffffffffffffffffffffffffffffffffffff1673ffffffffffffffffffffffffffffffffffffffff168152505090508060000151816020015181915094509450505050935093915050565b600061158a612919565b60018054905084101515611606576040517f08c379a000000000000000000000000000000000000000000000000000000000815260040180806020018281038252600f8152602001807fe997aee9a298e4b88de5ad98e59ca8000000000000000000000000000000000081525060200191505060405180910390fd5b60018481548110151561161557fe5b90600052602060002090600502019150600260008360040154815260200190815260200160002080549050831015156116b6576040517f08c379a000000000000000000000000000000000000000000000000000000000815260040180806020018281038252600f8152602001807fe59b9ee7ad94e4b88de5ad98e59ca8000000000000000000000000000000000081525060200191505060405180910390fd5b6002600083600401548152602001908152602001600020838154811015156116da57fe5b906000526020600020906003020160606040519081016040529081600082018054600181600116156101000203166002900480601f01602080910402602001604051908101604052809291908181526020018280546001816001161561010002031660029004801561178d5780601f106117625761010080835404028352916020019161178d565b820191906000526020600020905b81548152906001019060200180831161177057829003601f168201915b505050505081526020016001820160009054906101000a900473ffffffffffffffffffffffffffffffffffffffff1673ffffffffffffffffffffffffffffffffffffffff1673ffffffffffffffffffffffffffffffffffffffff16815260200160028201548152505090508160010160009054906101000a900473ffffffffffffffffffffffffffffffffffffffff1673ffffffffffffffffffffffffffffffffffffffff163373ffffffffffffffffffffffffffffffffffffffff161415156118e5576040517f08c379a000000000000000000000000000000000000000000000000000000000815260040180806020018281038252602a8152602001807fe58faae69c89e68f90e587bae997aee9a298e79a84e4babae6898de883bde7bb81526020017f93e69d9fe997aee9a2980000000000000000000000000000000000000000000081525060400191505060405180910390fd5b8160030160009054906101000a900460ff1615151561196c576040517f08c379a000000000000000000000000000000000000000000000000000000000815260040180806020018281038252600f8152602001807fe997aee9a298e5b7b2e7bb93e69d9f000000000000000000000000000000000081525060200191505060405180910390fd5b60018260030160006101000a81548160ff0219169083151502179055506001600080836020015173ffffffffffffffffffffffffffffffffffffffff1673ffffffffffffffffffffffffffffffffffffffff168152602001908152602001600020600101600082825401925050819055507f16cfc4cc10d02df831a3157ce8379572dd2ca3d908139d57d5e9d94434f4d7598484604051808381526020018281526020019250505060405180910390a1806020015173ffffffffffffffffffffffffffffffffffffffff166108fc83600201549081150290604051600060405180830381858888f19350505050158015611a6a573d6000803e3d6000fd5b5050505050565b6060600080611a7e6128d1565b611a86612919565b60018054905087101515611b02576040517f08c379a000000000000000000000000000000000000000000000000000000000815260040180806020018281038252600f8152602001807fe997aee9a298e4b88de5ad98e59ca8000000000000000000000000000000000081525060200191505060405180910390fd5b600187815481101515611b1157fe5b906000526020600020906005020160a06040519081016040529081600082018054600181600116156101000203166002900480601f016020809104026020016040519081016040528092919081815260200182805460018160011615610100020316600290048015611bc45780601f10611b9957610100808354040283529160200191611bc4565b820191906000526020600020905b815481529060010190602001808311611ba757829003601f168201915b505050505081526020016001820160009054906101000a900473ffffffffffffffffffffffffffffffffffffffff1673ffffffffffffffffffffffffffffffffffffffff1673ffffffffffffffffffffffffffffffffffffffff168152602001600282015481526020016003820160009054906101000a900460ff16151515158152602001600482015481525050915060026000836080015181526020019081526020016000208054905086101515611ce5576040517f08c379a000000000000000000000000000000000000000000000000000000000815260040180806020018281038252600f8152602001807fe59b9ee7ad94e4b88de5ad98e59ca8000000000000000000000000000000000081525060200191505060405180910390fd5b600260008360800151815260200190815260200160002086815481101515611d0957fe5b906000526020600020906003020160606040519081016040529081600082018054600181600116156101000203166002900480601f016020809104026020016040519081016040528092919081815260200182805460018160011615610100020316600290048015611dbc5780601f10611d9157610100808354040283529160200191611dbc565b820191906000526020600020905b815481529060010190602001808311611d9f57829003601f168201915b505050505081526020016001820160009054906101000a900473ffffffffffffffffffffffffffffffffffffffff1673ffffffffffffffffffffffffffffffffffffffff1673ffffffffffffffffffffffffffffffffffffffff16815260200160028201548152505090508060000151816020015160036000846040015181526020019081526020016000208054905082925094509450945050509250925092565b6000602052806000526040600020600091509050806000018054600181600116156101000203166002900480601f016020809104026020016040519081016040528092919081815260200182805460018160011615610100020316600290048015611f0a5780601f10611edf57610100808354040283529160200191611f0a565b820191906000526020600020905b815481529060010190602001808311611eed57829003601f168201915b5050505050908060010154905082565b6000611f246128d1565b611f2c612919565b600060018054905087101515611faa576040517f08c379a000000000000000000000000000000000000000000000000000000000815260040180806020018281038252601a8152602001807fe997aee9a2986964e8b685e8bf87e695b0e7bb84e88c83e59bb400000000000081525060200191505060405180910390fd5b600187815481101515611fb957fe5b906000526020600020906005020160a06040519081016040529081600082018054600181600116156101000203166002900480601f01602080910402602001604051908101604052809291908181526020018280546001816001161561010002031660029004801561206c5780601f106120415761010080835404028352916020019161206c565b820191906000526020600020905b81548152906001019060200180831161204f57829003601f168201915b505050505081526020016001820160009054906101000a900473ffffffffffffffffffffffffffffffffffffffff1673ffffffffffffffffffffffffffffffffffffffff1673ffffffffffffffffffffffffffffffffffffffff168152602001600282015481526020016003820160009054906101000a900460ff1615151515815260200160048201548152505092506002600084608001518152602001908152602001600020805490508610151561218d576040517f08c379a000000000000000000000000000000000000000000000000000000000815260040180806020018281038252601a8152602001807fe59b9ee7ad946964e8b685e8bf87e695b0e7bb84e88c83e59bb400000000000081525060200191505060405180910390fd5b6002600084608001518152602001908152602001600020868154811015156121b157fe5b906000526020600020906003020160606040519081016040529081600082018054600181600116156101000203166002900480601f0160208091040260200160405190810160405280929190818152602001828054600181600116156101000203166002900480156122645780601f1061223957610100808354040283529160200191612264565b820191906000526020600020905b81548152906001019060200180831161224757829003601f168201915b505050505081526020016001820160009054906101000a900473ffffffffffffffffffffffffffffffffffffffff1673ffffffffffffffffffffffffffffffffffffffff1673ffffffffffffffffffffffffffffffffffffffff1681526020016002820154815250509150600360008360400151815260200190815260200160002090508060408051908101604052808781526020013373ffffffffffffffffffffffffffffffffffffffff1681525090806001815401808255809150509060018203906000526020600020906002020160009091929091909150600082015181600001908051906020019061235b929190612851565b5060208201518160010160006101000a81548173ffffffffffffffffffffffffffffffffffffffff021916908373ffffffffffffffffffffffffffffffffffffffff1602179055505050507fd13cf9df71a1d2185af99f98dee0d9068ccae7b7318c96f312c7681a7bd7af1e8787604051808381526020018281526020019250505060405180910390a1600181805490500393505050509392505050565b60606000808373ffffffffffffffffffffffffffffffffffffffff1673ffffffffffffffffffffffffffffffffffffffff1681526020019081526020016000206000018054600181600116156101000203166002900480601f0160208091040260200160405190810160405280929190818152602001828054600181600116156101000203166002900480156124d05780601f106124a5576101008083540402835291602001916124d0565b820191906000526020600020905b8154815290600101906020018083116124b357829003601f168201915b50505050509050919050565b60606000806000806124ec6128d1565b60018054905087101515612568576040517f08c379a000000000000000000000000000000000000000000000000000000000815260040180806020018281038252600f8152602001807fe997aee9a298e4b88de5ad98e59ca8000000000000000000000000000000000081525060200191505060405180910390fd5b60018781548110151561257757fe5b906000526020600020906005020160a06040519081016040529081600082018054600181600116156101000203166002900480601f01602080910402602001604051908101604052809291908181526020018280546001816001161561010002031660029004801561262a5780601f106125ff5761010080835404028352916020019161262a565b820191906000526020600020905b81548152906001019060200180831161260d57829003601f168201915b505050505081526020016001820160009054906101000a900473ffffffffffffffffffffffffffffffffffffffff1673ffffffffffffffffffffffffffffffffffffffff1673ffffffffffffffffffffffffffffffffffffffff168152602001600282015481526020016003820160009054906101000a900460ff1615151515815260200160048201548152505090508060000151816020015182604001516002600085608001518152602001908152602001600020805490508460600151849450955095509550955095505091939590929450565b806000803373ffffffffffffffffffffffffffffffffffffffff1673ffffffffffffffffffffffffffffffffffffffff1681526020019081526020016000206000019080519060200190612755929190612981565b5050565b60036020528160005260406000208181548110151561277457fe5b906000526020600020906002020160009150915050806000018054600181600116156101000203166002900480601f0160208091040260200160405190810160405280929190818152602001828054600181600116156101000203166002900480156128215780601f106127f657610100808354040283529160200191612821565b820191906000526020600020905b81548152906001019060200180831161280457829003601f168201915b5050505050908060010160009054906101000a900473ffffffffffffffffffffffffffffffffffffffff16905082565b828054600181600116156101000203166002900490600052602060002090601f016020900481019282601f1061289257805160ff19168380011785556128c0565b828001600101855582156128c0579182015b828111156128bf5782518255916020019190600101906128a4565b5b5090506128cd9190612a01565b5090565b60a06040519081016040528060608152602001600073ffffffffffffffffffffffffffffffffffffffff16815260200160008152602001600015158152602001600081525090565b60606040519081016040528060608152602001600073ffffffffffffffffffffffffffffffffffffffff168152602001600081525090565b604080519081016040528060608152602001600073ffffffffffffffffffffffffffffffffffffffff1681525090565b828054600181600116156101000203166002900490600052602060002090601f016020900481019282601f106129c257805160ff19168380011785556129f0565b828001600101855582156129f0579182015b828111156129ef5782518255916020019190600101906129d4565b5b5090506129fd9190612a01565b5090565b612a2391905b80821115612a1f576000816000905550600101612a07565b5090565b905600a165627a7a72305820e72631ebe6ab6a115c177c57b7fbcdcbcf8f7cc54d9683e219546edc31894ec70029",
  "source": "pragma solidity ^0.4.24;\r\n\r\ncontract Probcontract {\r\n    struct User {\r\n      string username;\r\n      uint rank;\r\n    }\r\n\r\n    struct Comment {\r\n        string comment;\r\n        address commenter;\r\n    }\r\n\r\n    struct Answer {\r\n        string answer;\r\n        address answerer;\r\n        uint answerId;\r\n    }\r\n\r\n    struct Question {\r\n        string question;\r\n        address asker;\r\n        uint value;\r\n        bool isEnd;\r\n        uint questionId;\r\n    }\r\n\r\n    mapping(address => User) public users;\r\n    Question[] public questions;\r\n    mapping(uint => Answer[]) public answers; \r\n    mapping(uint => Comment[]) public comments; \r\n\r\n    event QuestionEnd(uint quesid, uint ansid);\r\n    event AddAnswer(uint quesid);\r\n    event AddComment(uint quesid, uint ansid);\r\n\r\n    function getRank(address addr) public view returns(uint) {\r\n        return users[addr].rank;\r\n    }\r\n    \r\n    function setUsername(string memory _username) public {\r\n        users[msg.sender].username = _username;\r\n    }\r\n\r\n    function getUsername(address addr) public view returns(string memory) {\r\n        return users[addr].username;\r\n    }\r\n\r\n    function putQuestion(string memory _question) public payable returns(uint) {\r\n        questions.push(Question(_question, msg.sender, msg.value, false, questions.length));\r\n        return questions.length-1;\r\n    }\r\n\r\n    function answerQuestion(uint _id, string memory _answer) public returns(uint) {\r\n        require(_id < questions.length, \"id\");\r\n        Answer[] storage ans = answers[questions[_id].questionId];\r\n        ans.push(Answer(_answer, msg.sender, ans.length));\r\n\r\n        emit AddAnswer(_id);\r\n        return ans.length-1;\r\n    }\r\n\r\n    function addComment(uint _quesid, uint _ansid, string memory _comment) public returns(uint) {\r\n        require(_quesid < questions.length, \"id\");\r\n        Question memory q = questions[_quesid];\r\n        require(_ansid < answers[q.questionId].length, \"id\");\r\n        Answer memory a = answers[q.questionId][_ansid];\r\n        Comment[] storage comm = comments[a.answerId];\r\n        comm.push(Comment(_comment, msg.sender));\r\n\r\n        emit AddComment(_quesid, _ansid);\r\n        return comm.length-1;\r\n    }\r\n\r\n    function getQuestionLength() public view returns (uint) {\r\n        return questions.length;\r\n    }\r\n\r\n    function getQuestion(uint _id) public view returns(string memory, address, uint, uint, bool) {\r\n        require(_id < questions.length, \"\");\r\n        Question memory q = questions[_id];\r\n\r\n        return (q.question, q.asker, q.value, answers[q.questionId].length, q.isEnd);\r\n    }\r\n\r\n    function getAnswer(uint _quesid, uint _ansid) public view returns(string memory, address, uint) {\r\n        require(_quesid < questions.length, \"\");\r\n        Question memory q = questions[_quesid];\r\n        require(_ansid < answers[q.questionId].length, \"\");\r\n        Answer memory a = answers[q.questionId][_ansid];\r\n\r\n        return (a.answer, a.answerer, comments[a.answerId].length);\r\n    }\r\n\r\n    function getComment(uint _quesid, uint _ansid, uint _commid) public view returns(string memory, address) {\r\n        require(_quesid < questions.length, \"\");\r\n        Question memory q = questions[_quesid];\r\n        require(_ansid < answers[q.questionId].length, \"\");\r\n        Answer memory a = answers[q.questionId][_ansid];\r\n        require(_commid < comments[a.answerId].length, \"\");\r\n        Comment memory c = comments[a.answerId][_commid];\r\n\r\n        return (c.comment, c.commenter);\r\n    }\r\n\r\n    function questionEnd(uint _quesid, uint _ansid) public {\r\n        require(_quesid < questions.length, \"\");\r\n        Question storage q = questions[_quesid];\r\n        require(_ansid < answers[q.questionId].length, \"\");\r\n        Answer memory a = answers[q.questionId][_ansid];\r\n        require(msg.sender == q.asker, \"\");\r\n        require(!q.isEnd, \"\");\r\n\r\n        q.isEnd = true;\r\n        users[a.answerer].rank += 1;\r\n        emit QuestionEnd(_quesid, _ansid);\r\n        a.answerer.transfer(q.value);\r\n    }\r\n}\r\n",
  "sourcePath": "D:\\\\\\\\project\\Prob\\contracts\\ProbContract.sol",
  "compiler": {
    "name": "solc",
    "version": "0.4.24+commit.e67f0147.Emscripten.clang"
  },
  "schemaVersion": "2.0.1",
  "updatedAt": "2018-12-31T13:56:16.503Z"
}